:040000006F10D03578
:100004000000000000000000A000002056130020A3
:10001400A9BDF9F310140020000000000000000046
:1000240010140020A00000200000000000000000C8
:100034004210002000000000A0000020000000008A
:10004400A0000020A0000020A0000020A0000020AC
:10005400A0000020E0140020A00000200000000008
:10006400A0000020A0000020A0000020A00000208C
:10007400C8140020A0000020A0000020A000002040
:10008400A0000020A0000020A0000020A00000206C
:10009400A0000020C6020020A0000020A000002034
:1000A40001A0B7170040984B41111367070198CB83
:1000B40003C707011377E70F2388E70013078008B6
:1000C40073370780137787083AC60F1000001307A9
:1000D40070052380E704130780FA2380E7040F10D8
:1000E4000000B847B70600069506558FB8C703C782
:1000F400B7041377F70DA385E70403C7A7001367B5
:1001040027012385E700130750142394E7003727BA
:1001140000408346578093F6F60EA302D7808946A3
:10012400A303D78003C7E7041377C70F1367170028
:100134002387E70403C7F70213672700A387E702AF
:1001440003C70701136717002388E7002380070408
:10015400B247F3A707800F10000041018280EFF03F
:100164005FF41305C020970500009385250A172620
:1001740000001306A69E63FAC5008322050023A08F
:10018400550011059105E3EAC5FE174500E0130586
:1001940025BF972500009385659C1386C18063FA6B
:1001A400C5008322050023A0550011059105E3EA4B
:1001B400C5FE13850181973500009385E51E63779D
:1001C400B500232005001105E36DB5FE930250022E
:1001D400739002BC8D42739042808542739012BC2E
:1001E400930280087390023097020000938282E1A8
:1001F40093E2320073905230972200E09382A2C6B9
:080204007390123473002030E6
:10020C00172300E0E702639C1384C1068357240084
:10021C0085CB83552400B7240020138544CEEF00F2
:10022C00700E3797004023110400938444CE04D7FA
:10023C008347770A93F7C70F93E72700A303F70ABF
:10024C00172300E06700A39A172300E0E7026395E9
:10025C002A8A2E8981449389C106B73B0020054C1C
:10026C00B79A004063E724012685172300E0670056
:10027C00C39683D7418133049940FD1763F58700FA
:10028C0003D441817D1483C74900F5FFB3059A005F
:10029C00228613854B90972000E0E78000962382FE
:1002AC008901B34704082392FA0A83C76A0AA29405
:1002BC0093F7C70F93E727002383FA0A65B7011159
:1002CC0026CC22CE4ACA4EC852C656C45AC2B7947D
:1002DC00004083C6840083C7940013F7F60FC18ACD
:1002EC006386067A93F7F70F13F97700C18B639047
:1002FC000764630F090089476309F95E7244E2449D
:10030C005249C249324AA24A124B0561730020304D
:10031C0083C7F409A18B638B0754373A00209307EA
:10032C004AD003C7070083D62700238FE18003C779
:10033C00170013064AD0A38FE18003D7670083D739
:10034C004700239CE180239ED180239DF18083CAAA
:10035C00E18193FA0A06638E0A0883C7E18193F759
:10036C000702ADCF03C6F181930610029377F60F07
:10037C006301D60663E9F60093060002638CD7008E
:10038C001309F00F01A89387E7FD93F7F70F854644
:10039C00E3E8F6FE83D681819307F003930A000409
:1003AC0063E6D70083DA8181B3CA0A0883A4018289
:1003BC00568613054AD0A685972000E0E780E08397
:1003CC00D694CA8A23A091829307F00F6390FA1EE9
:1003DC00BDA19387210723A0F1826DBF03C9E181E1
:1003EC001349090413596948330920411379F90F4A
:1003FC0055B783C5F1812D4593F7F50F6361B5446E
:10040C00916593854585B3C7B7209C43828783D775
:10041C00C1819946A183FD1793F7F70F63ECF60C96
:10042C00916693864688B3C7D7209C438287916791
:10043C00938747AD83C4070023A0F18281A0B797AF
:10044C00004003C7A700131747606357070605470B
:10045C002389E18013070040239AE18003C721819F
:10046C0085476310F70691679387C7A483C4370049
:10047C0003C7270023A0F182A204D98C83D78181E2
:10048C0063F4F400239C918003D781819307F003DC
:10049C00130B000463E6E70003DB8181334B0B088D
:1004AC0083A401825A8613054AD0A685971000E0D2
:1004BC00E780A074DA9439B723890180130700040C
:1004CC0061BF9167938707A955B783D7C181094746
:1004DC0093F7F70F6388E702636BF70085E3938765
:1004EC00818083C4070023A0F182814A41BF0D475C
:1004FC00638EE7008144930AF00F49B791679387A5
:10050C00C7A30DBF9167938747A22DB791679387B8
:10051C00C7A00DB79167938707A029BF83C6218118
:10052C000547639FE6029167938707A983C4370049
:10053C0003C727009165A204D98C372500201386A8
:10054C00E4FF938525A9130525B9971000E0E780F2
:10055C00C06AB7270020938707B923A0F18239BF5F
:10056C0083C7218193FAF70FD1F791679387C7A4BB
:10057C0083C4370003C727009165A204D98C3725A3
:10058C0000201386E4FF9385E5A4130565BD971041
:10059C0000E0E7808066B7270020938747BD75BFD2
:1005AC0083D7C18193F7F70F238BF18083C7E18148
:1005BC009397476063DD072803D781819307000475
:1005CC0063E6E70083D78181B3C7070803D781812E
:1005DC001D8F33470708239CE18037970040231E6B
:1005EC00F7089947230FF708379700408347F70917
:1005FC0093F7F707A30FF70811B383C77181230093
:10060C00F60003D781818547E3F2E7FA239CF1805A
:10061C0071BF83D7C18193F7F70FA38BF180054787
:10062C002388E18061B783C7E181FD8B99EF83D784
:10063C00C181054793F7F70F6393E72083C71181B7
:10064C0093F7E70FA388F18095B703C6E18189473B
:10065C007D8A6316F61E83D7C18193F7F70F6390DB
:10066C00071E83D7A1811307200893F7F70F638D1B
:10067C00E70013073008638EE7006392C71C3797B7
:10068C000040A303F70A1DB7B79700402383070A5E
:10069C0031BFB79700402385070A09BF83C7E181A3
:1006AC00FD8BC1EB83D7C181054693F7F70F639C94
:1006BC00C70283C621816398F600916783C737A56B
:1006CC0093F7070281EF83C72181639A071691671D
:1006DC0083C777A993F707026383071683C7118132
:1006EC0093E7170085B783D7C181094793F7F70FB5
:1006FC006397E71403D7A181930700106304F702F3
:10070C0003D7A18193070020630EF70003D7A181C3
:10071C00930700306308F70003D7A18193070040CB
:10072C00E316F7E883C7418293E707082382F18237
:10073C00B5BD03C6E18189477D8AE319F6E683D707
:10074C00C18193F7F70FE39307E683D7A1811307D2
:10075C00200893F7F70F6381E702130730086388CB
:10076C00E702639EC70C379700408347770A93F7DD
:10077C00C70F93E7170031B7379700408347670AD5
:10078C0093F7C70F93E717002303F70A05B53797BD
:10079C0000408347A70A93F7C70F93E71700230579
:1007AC00F70A29B523000600A9BD83C7E1812312EE
:1007BC000AD00947FD8B6393E70603D7A181930603
:1007CC0020081377F70F6309D702930630086302EA
:1007DC00D7046310F706B797004083C7770A85469E
:1007EC008D8B6394D7002300F60083D78181E37F40
:1007FC00F7DA239CE1805DBB379700400347670A1B
:10080C000D8B85466314D7002300E60003D7818146
:10081C00E5BB379700400347A70ADDB783C7E181E3
:10082C00FD8BE1F783C71181858BE1D32300E600B3
:10083C006DBF03D7818163F4E700239CF180B797E8
:10084C0000401547238FE708A38FE70871BB83D7B8
:10085C00818189EBB7970040239E07081947238FA6
:10086C00E70859B3B79700401947F9BFA38F04089D
:10087C0083D7C40783C7E18193F70706B5C3239CCD
:10088C00018003C7F18193070002631BF70437371C
:10089C000020130747D0834607009387C1062383A4
:1008AC00D70083461700A383D700834627002384F1
:1008BC00D70083463700A384D7008346470023859F
:1008CC00D7008346570003476700A385D7002386CC
:1008DC00E7007947A386E700971000E0E7804037F0
:1008EC0083D78181E39207D0B5B703D744089387A8
:1008FC00C1069376F70F03C6270021832381D70007
:10090C0083C63700A381E70083C7740A93C74700E7
:10091C00A383F40A83C7740A93F7C70FA383F40A5B
:10092C0083C7740A93F7F707A383F40AC1BA8947FC
:10093C006301F90E8D47630FF910E311099C83D7FE
:10094C00818181E79947A38FF40883C7E18193F7ED
:10095C000706BDEF83C7F181954613F7F70F638C3C
:10096C00D70899476312F70A03D781819307F003DD
:10097C001304000463E6E70003D4818133440408C4
:10098C0083A40182373500202286A685130545D025
:10099C00971000E0E780602683D78181A29423A082
:1009AC009182818FB3C70708239CF180B7970040D1
:1009BC00239E870803C7E70913474700238FE708DF
:1009CC0003C7E7091377C70F13672700238FE708BF
:1009DC0083C741829397476063D60700971000E066
:1009EC00E780002A379700408347E70993F7F7071A
:1009FC00230FF70821B283C761813797004093F723
:100A0C00F70FA301F700E9B7B7970040239E07083B
:100A1C00C1B72392040A83C7640A93C74700238390
:100A2C00F40A83C7640A93F7C70F2383F40A9387E6
:100A3C00C10703C727001377E70F2381E7009387CC
:100A4C00C1062382070083C7640A93F7F707238341
:100A5C00F40A6DB083C7A40A93F7C70F2385F40A71
:100A6C0083C7A40A93C747002385F40A9387C10759
:100A7C0003C737001377E70FA381E70083C7A40AE6
:100A8C0093F7F7072385F40A6FF05F8793770704D2
:100A9C0099C7930700042384F4006FF03F86937783
:100AAC00270095CB89472384F40003C7A400118B3E
:100ABC0019CB03C7118113672700A388E18083C773
:100ACC0011816FF0BF8303C711811377D70FA388F0
:100ADC00E1806FF0BF82937717008DC3A38B0180E9
:100AEC00238B0180A388018023880180A3810400CB
:100AFC00971000E0E780C025854771BF2384E40090
:100B0C006FF0CFFF171300E0E70223095D71B30705
:100B1C00B500AA843EC4930BB00237590040916DC6
:100B2C00373C0020A2476397F4006161171300E083
:100B3C006700630A83C7040093964760A30DD10036
:100B4C006384774D63E4FB0421476388E7062947F8
:100B5C00638BE70803A701831306F03F6369E60480
:100B6C00811793F7F70F1306E0056375F600A54799
:100B7C00639FF6021306170023A8C182B737002023
:100B8C00938747F4BA972380D70015A01307D00298
:100B9C00638CE74803A701831306F03F6369E60003
:100BAC00811793F7F70F1306E005E375F6FC8545FF
:100BBC001305B101EFF04FE92DA003A60183938536
:100BCC000D8A13054CD4972000E0E78000DEAA853F
:100BDC0013054CD4EFF04FE783A7018399C323A8E7
:100BEC000182850481B783A70183E5DF916A85457E
:100BFC0013850A9BEFF04FE503A40183373A0020DD
:100C0C0093074AF41165A2971D4693054AF4130500
:100C1C00C58A23800700972000E0E78020E31DE1D0
:100C2C009D476311F4029165373400209385458B01
:100C3C00130544D4972000E0E78000DFB945130585
:100C4C0044D481A811651D4693054AF41305458CBF
:100C5C00972000E0E78080DF631605269D4763FB45
:100C6C00870AC14763E08708916537350020701803
:100C7C009385C58C1305B5F4230E0102972000E073
:100C8C00E78000D585476309F50011659945130583
:100C9C00458DEFF06FDBA1B78347C103375400409C
:100CAC0033F5A70A1375F50FA301A400971000E004
:100CBC00E78080505C48034734000346C103B3C748
:100CCC000708B387E70291659385C58DB356F50286
:100CDC0037340020130544D4972000E0E780E0CCA3
:100CEC00AA85B1BF11651D4693054AF4130585907D
:100CFC00972000E0E78080D5E30305EE11651D46E3
:100D0C0093054AF413050594972000E0E78000D47E
:100D1C0063060524116593054AF41D461305C59910
:100D2C00972000E0E78080D22A8AE31A05EA9D47E3
:100D3C00E317F4EA916545469385C59E68189710AC
:100D4C0000E0E78080EB814741477408BE96238022
:100D5C00F6008507E39BE7FE70106C086818971087
:100D6C0000E0E780206A70106C086818971000E0AB
:100D7C00E78040693734002091659385459A1305C7
:100D8C0044D4972000E0E78020CA916537350020D5
:100D9C009385459B130515D5972000E0E780C0C8C7
:100DAC00814CED47930644D4116B130D44D4780851
:100DBC0033069701034606003385F60093054B9CDA
:100DCC003EC6972000E0E78040BEB2473737002090
:100DDC00930647D4850C41478D07E39AECFC3735D5
:100DEC00002093850A9B1305F5D8972000E0E78037
:100DFC00A0C39305C004130544D4EFF0EFC4916570
:100E0C009385C59C130544D4972000E0E780C0C1AE
:100E1C00814CB9477810B306970103C60600330519
:100E2C00FD0093054B9C3EC6972000E0E780E0B7A1
:100E3C00B247850C41478D07E39EECFCB73C002084
:100E4C0093850A9B13852CD8972000E0E780C0BDC2
:100E5C009305F003130544D4EFF00FBF70086C102A
:100E6C00681802CE02D002D202D4971000E0E780BC
:100E7C00605991659385C59D130544D4972000E076
:100E8C00E78080BAB9477808B306470103C6060065
:100E9C003305FD0093054B9C3EC6972000E0E78090
:100EAC00C0B0B247050A41478D07E31EEAFC9385A3
:100EBC000A9B13852CD8972000E0E780E0B69305B9
:100ECC00F003B5BB11651D4693054AF413058590D7
:100EDC00972000E0E78080B73DE19D47E3FC87E287
:100EEC00C147E3EE87CE91653735002070189385A6
:100EFC0005911305B5F4231E0102972000E0E7804D
:100F0C0020AD8547E313F5D80355C103971000E0D6
:100F1C00E7804012971000E0E780002A3757004026
:100F2C005C4B034737009165B3C70708B387E702EB
:100F3C000356C10393854591B356F50251BB116518
:100F4C001D4693054AF413050594972000E0E780AD
:100F5C00E0AFE31105DC9D47E3FE87DAC147E3E030
:100F6C0087C8916537350020701893850591130556
:100F7C00B5F4231E0102972000E0E78060A58547A9
:100F8C00E315F5D0B757004003AA47018357C103B7
:100F9C0037340020814A334A0A08637FFA0091658E
:100FAC0093858594130544D4972000E0E780C0A76F
:100FBC00930A6002231E41038355C10385460146F3
:100FCC000545971000E0E7806008971000E0E78087
:100FDC00A01E375700405C4B034737000356C10334
:100FEC00B3C70708B387E7029165130744D4938509
:100FFC000597B356F50233055701972000E0E780BB
:10100C00C09AB305550125B98327490103574900F7
:10101C00B3C707086377F700835749008507B3C741
:10102C0007082312F90075BE03574900B347070898
:10103C006DDB83574900FD17DDB7B7F700E023A23E
:10104C00070003A8818283A8C182130518003336D8
:10105C000501B307160123A4A1822A8723A6F182D6
:10106C0073002030411122C683A7818391C783A7C7
:10107C008183829723AC018232444101730020307A
:10108C00B7F70700D853411123AAE182B7170040E4
:10109C00984B1367070198CB03C707011377E70F2A
:1010AC002388E700130780087337078013778708B6
:1010BC003AC60F100000130770052380E7041307CE
:1010CC0080FA2380E7040F1000001307000C63194B
:1010DC00E50203D787001367070C2394E700B717C3
:1010EC00004003C70701136717002388E70023801C
:1010FC000704B247F3A707800F100000410182805C
:10110C0003C7A70093760520C9C2118B39E703C723
:10111C00E70403C6E7041377F70F1366360023873B
:10112C00C70403C6A700136646002385C70003D671
:10113C00870083D587003346060893E5050C239476
:10114C00B700A5470100FD1793F7F70FE5FFB71799
:10115C0000402394C7002387E70493770510DDCB69
:10116C00371700408347A70093E707012305F700D3
:10117C009377F50185E3B727004003C757801367C2
:10118C000701A382E7801D4715A01367270023855D
:10119C00E700E1B72547636BF704B727004003C7A7
:1011AC0057801377F70EA382E7800547A383E78068
:1011BC0033450508B71700401367050C2394E70067
:1011CC002394A700C9C203C7570483C65704418B95
:1011DC00858A558F09F703C72701418B09D303C7AC
:1011EC00A7001377D70F2385E700D5BD93770501AB
:1011FC0099EBB727004003C757801377F70EA382EC
:10120C00E780094765B7B727004003C757801377B6
:10121C00F70E85BF9377850181EFB727004003C791
:10122C0057801377F70EA382E78013071005BDBF15
:10123C00B727004003C757801377F70EA382E780C8
:10124C0013077005A5B703C7A7001377B70F61BFC6
:10125C0037E700E01C4354437D56A183E206D58F4B
:10126C009306071890C2D0C2B7060020371600208C
:10127C00938506001306C60603A8850390DD23ACF0
:10128C00A1829165130507100CC1130707200CC32D
:10129C009386060003A7818375FF37E700E011668C
:1012AC002320C7180F10000023AC06039396870069
:1012BC002320D710E1832322F7108280171300E03C
:1012CC00E702A39041118146014681451145B126A3
:1012DC0093078008F3B7078093F787083EC60F1073
:1012EC000000B7170040130770052380E7041307AD
:1012FC0080FA2380E7040F10000003C7670413670C
:10130C0017002383E70423800704B247F3A7078061
:10131C000F1000004101171300E06700438D37E701
:10132C0000E01C435443A183E206D58F1CC1FD573A
:10133C002320F7182322F718828013178500B7E7AC
:10134C0000E023A0E710618123A2A7108280411145
:10135C008146014681451145C92413078008F3379E
:10136C00078093F787083EC40F100000B7170040A2
:10137C00130670052380C704930680FA2380D704D4
:10138C000F100000FD552396B70223800704A245D9
:10139C00F3A505800F1000007337078013778708BB
:1013AC003AC60F1000002380C7042380D7040F1007
:1013BC00000003C76704136717002383E704238027
:1013CC000704B247F3A707800F10000001A0B54730
:1013DC003305F5027D1511E182800100E5BF17038D
:1013EC0000E0E702837E2A841305803E7D14C53716
:1013FC003344040875F8170300E06700437F2E960A
:10140C00AA870F70B67882809305000273A045807E
:10141C0082457390153492402242B2424243D243E9
:10142C006244F244025592552256B2564257D25754
:10143C006258F25806499649264AB64A464BD64B4C
:10144C00664CF64C065D965D265EB65E465FD65FD4
:10145C000961730020304111B7170040985F3AC6FC
:10146C00945F3247E39CE6FE324541018280B7E748
:10147C0000E03707001023A0E7208280411193077A
:10148C008008F3B7078093F787083EC60F1000005B
:10149C00B7170040130770052380E704130780FA81
:1014AC002380E7040F100000C8DB23800704B24739
:1014BC00F3A707800F10000023A001844101828054
:1014CC00B7170040130700032388E702054723A042
:1014DC00E184730020300000197106C212C416C6D4
:1014EC001AC81ECA22CC26CE2AD02ED232D436D638
:1014FC003AD83EDA42DC46DECAC0CEC2D2C4D6C628
:10150C00DAC8DECAE2CCE6CEEAD0EED2F2D4F6D617
:10151C00FAD8FEDA9385C1838841E7000500924032
:10152C002242B2424243D2436244F24402559255A3
:10153C002256B2564257D2576258F258064996492B
:10154C00264AB64A464BD64B664CF64C065D965D23
:10155C00265EB65E465FD65F0961730020302303BA
:10156C00048015472303E48001002302A4808280B9
:10157C0083076480E3CE07FE230304808280830705
:10158C006480E3CE07FE0345448082808307648039
:10159C00E3CE07FE2302A4808280411126C44AC2F6
:1015AC004EC006C61377F50BAD47AA892E89954414
:1015BC006306F70019456537653F8D444E85453701
:1015CC00FD59FD1463983401B240A244124982497A
:1015DC0041018280135509011375F50F453F22090E
:1015EC00CDB7011126CC06CEB704080051371545EE
:1015FC00BD37713769372AC6A53F32459377150039
:10160C0089EB136515001375F50FF240E244056183
:10161C008280FD14E9FC0145CDBF3971B7F7070095
:10162C0006DE26DC4ADA4ED852D656D45AD25ED0D2
:10163C0062CE03AB47027D57B7E700E083AA0700F1
:10164C0022C603AA470023A0E71823A2E718B71B5A
:10165C000040930770052380FB04930780FA2380D6
:10166C00FB0483C74B041147AA8993E7070E238217
:10167C00FB04372400401305F00F2303E4802E8C69
:10168C003289B684E93DED35938779FF93F7F70FEF
:10169C000947137BFB006362F712A1473707080069
:1016AC006307FB00B70707003E9C37870700795597
:1016BC00637EEC02B3878401636AF702A9476398DF
:1016CC00F90689E481446D3526850DA0E28509452E
:1016DC00E93505090345F9FFFD14050C453D81C4A9
:1016EC009377FC0FFDF7F53D69FD7D55B71700406D
:1016FC00130770052380E704130780FA2380E7049F
:10170C0003C74704418B2382E704F250B7E700E09C
:10171C0023A0571123A24711E25432445259C25903
:10172C00325AA25A125B825B724C21618280A547AD
:10173C00639AF906A1478569631DFB029387F9FF3C
:10174C00B3869700B374FC00B69493C7F7FFFD8C77
:10175C0033FC8701416B856B9387F9FFB3F78701E6
:10176C0099E363FF340193D94900C147E3E637FF9E
:10177C0091BF9307F00FE9B78567C169FD17C9B72A
:10178C001305800D638869011305000263847901D8
:10179C0013051008E2851135A93521D94E9CB38467
:1017AC003441C1B7E2852D45CD3BCA94E30C99F089
:1017BC000509F133A30FA9FED5BF9387F9FF93F762
:1017CC00F70F636FF70AA1476319FB06B707080009
:1017DC003E9C83C75B043707070093F7070299E326
:1017EC0037870700B70708003E977955E370ECF090
:1017FC00B3079C00E36CF7EE8947639AF904898080
:10180C00D549E38104ECE2850945413B11090327E5
:10181C00C9FF91472320E48003076480E34E07FE51
:10182C0023033481FD17EDFBFD14110C81C4937758
:10183C00FC0FE9FF7D3371F54DBD83C75B043707A2
:10184C00070093F70702D5F33787070079BF854761
:10185C00E384F9F2E2852D4589339389F4FFE38320
:10186C0004E6313B93F7390091EB83260480032780
:10187C00090093074900E398E6E43E89CE84F1BF62
:10188C00B5476396F9001305900BD13925BDB147C7
:10189C001305B00AE38BF9FE99476394F904A14749
:1018AC006315FB00B70708003E9CE2852D45F5311A
:1018BC0081440D4BA149E131639664018327048077
:1018CC002320F9008504E39834FF83270480131741
:1018DC002C01635507002312F900EDB32322F90004
:1018EC00D5B39D476399F90281451305B004753151
:1018FC00BD442320090023220900FD59493193F7E7
:10190C007400CA9703C70700FD14398D2380A70004
:10191C00E39634FF45BB91476399F90013056006C4
:10192C003D39B931130590098DB7E38D09D8F154C0
:10193C0059BB83A7C18498433706CEFF7D16137716
:10194C00F7CF1367071098C303A78185144737088F
:10195C0003001375F51FF18E14C783A6418523A8C8
:10196C00060523A40700904B93F5F507130888157B
:10197C001366F60390CB90431366060890C3F04FA2
:10198C00137606E0498EF0CF23AC070423A007069C
:10199C005057759A50D79043137606F84D8E90C3D6
:1019AC001306401FF0D2172600002325069C17268D
:1019BC0000002329069A054690C29043B7053300D0
:1019CC001376F6CF90C390431376F6CF13660620AA
:1019DC0090C310474D8E10C723A80605D853131774
:1019EC00F728D8D32547F05201C6B04FE37DC7FE88
:1019FC00D8531317F748D8D3A85313354500828012
:101A0C00138741851443BC4ABD9BBCCA010001002D
:101A1C00010001001C43B44B93F6F68FB4CB9443F6
:101A2C0093E6860094C3010001000100010083A627
:101A3C00C1849C4293F7F7CF93E707109CC203A68F
:101A4C0081851C46B706CEFFFD16F58F1CC61C43C0
:101A5C0037070300B8CB83A7018599CBD4439047B4
:101A6C009842518F98C2944BDC4B9842D98F9CC2B0
:101A7C009727000023A40790828083A741859C436D
:101A8C008D8BE9C74111B7E700E04AC003A90700F5
:101A9C0026C23707200006C622C4AA843379E9007F
:101AAC0023A0E7180F100000172400001304448B28
:101ABC00584C8D47631AF7009727000083A7478976
:101ACC00014681454545829719476391E404834754
:101ADC00140289CB83470402639697009727000072
:101AEC00A380078A584CA1476315F7009307801011
:101AFC001EB0238201842937B2402244B7E700E0AC
:101B0C0023A0271192440249410182809D47639B87
:101B1C00F40083471402F9D7034704028D47E313FB
:101B2C00F7FC6DBF544C6389E600584C6306F70014
:101B3C00584CA147E31FF7FA83471402DDFB5C4CBA
:101B4C002300F4028547A300F40265B782800000ED
:101B5C00971100209381C19117E101201301C14914
:101B6C001305400097E5FF1F9385054917E6FF1FF6
:101B7C001306066963FAC5008322050023A05500ED
:101B8C0011059105E3EAC5FE17E5FF1F1305A55CDA
:101B9C000285397101436EC619A0397141536AC867
:101BAC0066CA62CC5ECE19A0397101535AD056D296
:101BBC0052D44ED64AD826DA22DC06DE33016140F6
:101BCC00828241114AC026C222C406C68282B24D0C
:101BDC004101024D924C224CB24B4101024B924AB4
:101BEC00224AB2494101024992442244B240410185
:101BFC0082802A8309CA83830500230073007D1623
:101C0C00050385056DFA82809387C1062390070032
:101C1C00238207000547A382E7000DC52383070035
:101C2C00930620FCA383D7002384E700A38407003A
:101C3C0023850700A385070021472386E700794702
:101C4C00A386E7008280C9B7EFF2BFF701456D3F6D
:101C5C0037270020B7970040130747CE98D703C704
:101C6C00770A1377C70FA383E70A03C7770A1367AB
:101C7C002700A383E70A85BF83C7418293F7F70741
:101C8C002382F18283D6A181130700106399E602A7
:101C9C00B797004003C757001377070FA382E700DD
:101CAC0003C7570013671700A382E700379700405C
:101CBC008347570093E70708A302F700828083D677
:101CCC00A18113070020639FE600B797004003C76C
:101CDC0057001377070FA382E70003C7570013675A
:101CEC002700D9B783D6A18113070030639FE60084
:101CFC00B797004003C757001377070FA382E7007D
:101D0C0003C757001367870045B703D7A181930713
:101D1C000040E31DF7F8B797004003C7570013774F
:101D2C00070FA382E70037270020130787B5F8C7F2
:101D3C00130750032396E70A09472387E70A03C7CB
:101D4C005700136747008DB7B79700403547239866
:101D5C00E70015472399E70013070004F8CF130792
:101D6C000040F8D3B8D737370020130747D098D3A3
:101D7C0037270020130747CE98D737370020130793
:101D8C004790F8C31387C108B8C7239E0708238F51
:101D9C0007080947A38FE7082392070A2383070A3A
:101DAC00A383E70A2394070A2385070A1387C1072D
:101DBC008147C1463306F700230006008507E39BE5
:101DCC00D7FE828031C5EFF2DFDF379400409147B8
:101DDC002300F420371700408357A70193E707022D
:101DEC00231DF700A5472300F4009307F0052301FA
:101DFC00F400993F8547A300F400930780FB230070
:101E0C00F40013070002B7E700E023A2E710E1BBE0
:101E1C00B797004003C70720B71600401377B70FDA
:101E2C002380E720984E1377F7FD98CE03C7070061
:101E3C00136727002380E70003C707001377D70F2A
:101E4C002380E700B7E700E01307000223A2E7189E
:101E5C000F1000008280EFF2DFD60545812C114572
:101E6C0041201305003897F0FF1FE780602185455E
:101E7C007D557D2885457D551D2A914505654D2847
:101E8C00B757004069574165A381E7001305F59FDB
:101E9C00712A854601469305F00305456522F165D7
:101EAC0081460146938505200545713B0545193F43
:101EBC00B7E600E09307000223A2F6102167B7F7FC
:101ECC0000E023A407001307F7CF98CB056723A0E6
:101EDC00E6103D4798C397E0FF1FE7806032E5BFEF
:101EEC00371700408347E70412054111BD8BC98F9A
:101EFC0093F7F70F93068008F3B6068093F68608DF
:101F0C0036C60F100000930670052300D704930605
:101F1C0080FA2300D7040F1000002307F7042300D6
:101F2C000704B247F3A707800F100000410182801D
:101F3C00914763EAB7049167938787AEB3C5F520E1
:101F4C009841B71700409387470B02879443371784
:101F5C000040B3F6A64094C39306070B9C42B3F71C
:101F6C00A74019A8944337170040B3F6A64094C372
:101F7C009306070B9C42C98F9CC29307070A984390
:101F8C003377A74098C38280944337170040C98E9B
:101F9C00D9B798433377A74098C3B71700409387B6
:101FAC00070A9843498FF9BF9843498FF5B7914772
:101FBC0063EAB70491679387C7AFB3C5F52098411F
:101FCC00B71700409387470D02879443371700409B
:101FDC00B3F6A64094C39306070D9C42B3F7A740F3
:101FEC0019A8944337170040B3F6A64094C3930640
:101FFC00070D9C42C98F9CC29307070C98433377FB
:10200C00A74098C38280944337170040C98ED9B734
:10201C0098433377A74098C3B71700409387070CB2
:10202C009843498FF9BF9843498FF5B7375700400C
:10203C008347270093F7070F93E7C7002301F700A7
:10204C0048CB828091EAB757004003C7070033752D
:10205C00A7402380A7008280375700408347170092
:10206C0015C6C98FA300F700B75700409107014769
:10207C0019488D4813061700B356E54889CE63EA14
:10208C00E8002390B70032878907EDB7B3F7A74074
:10209C00D1BF2392B7003287E31806FF37570040B1
:1020AC0083470700C98F2300F7008280EFF2DFAF70
:1020BC00371400400359240283540402411133495C
:1020CC000908B3C4040829E91379F9F793F4F49FC8
:1020DC0033490908B3C4040893078008F3B7078091
:1020EC0093F787083EC40F10000093077005230078
:1020FC00F404930780FA2300F4040F10000023115A
:10210C0024032310940223000404A247F3A707809E
:10211C000F1000004101D9B4B7F50700814630001B
:10212C00B105194597F0FF1FE780204F22478967BB
:10213C00F98FEDF31369090893E4044093098008BF
:10214C00F3B7098093F787083EC00F100000930A7D
:10215C00700523005405130A80FA230044050F1060
:10216C00000023112403231094022300040482474B
:10217C00F3A707800F100000294597F0FF1FE78099
:10218C000025F3B9098093F989084EC20F1000009D
:10219C0023005405230044050F100000835704024C
:1021AC0093E707202310F402230004049247B9BFDD
:1021BC00B717004003D787009306000C1377070C62
:1021CC00630FD70403D78700137707101DC703D7F6
:1021DC00870083D787007D8B09EB93F70720A1C776
:1021EC003755E80113050580828037C59812FD8BA1
:1021FC00130505E03345F502828003D7870083D7AA
:10220C00870013770720FD8B11C73755E80113059D
:10221C000580CDB73725F40013050540E1BF2165D6
:10222C00130505D082803725F40013050540828004
:10223C003285814737370040A14663C3A7008280AF
:10224C000346B700E30ED6FE3386F50003460600C0
:10225C0085072304C700D5B7B7260020AA8703A596
:10226C0086C7373700201307473AAA9763EAE70077
:10227C000A87130707FC6365F70023ACF6C6828058
:10228C007D558280138781841C439306001094C370
:10229C0001000100010001001C4323A007001431C0
:1022AC0003480500A206B3E60601034825004208D0
:1022BC003368D8003431E206B3E6060194D75431C2
:1022CC0003484500A206B3E6060103486500420830
:1022DC003368D8007431E206B3E60601D4D714355E
:1022EC0003488500A206B3E606010348A500420890
:1022FC003368D8003435E206B3E6060194DB543576
:10230C000348C500A206B3E606010348E5004208EF
:10231C003368D8007435E206B3E60601D4DB943199
:10232C008821A206C98EA8214205558DB431E2063A
:10233C00C98E94CFD431C821A206C98EE82142059A
:10234C00558DF431E206C98ED4CF88259435A2067A
:10235C00C98EA8254205558DB435E206C98E94D395
:10236C00D435C825A206C98EE8254205558DF4350D
:10237C00E206C98ED4D3D443F59AD4C3D44393E69E
:10238C001600D4C3944393E6160094C31443DC4262
:10239C00858BBDE39C4E01451CA21C439C4FA18325
:1023AC001CB21C439C4FC1833CA21C439C4FE18339
:1023BC003CB21C43D84F58A2D84F218358B2D84FA7
:1023CC00418378A2D84F618378B2985318A698535A
:1023DC00218318B69853418338A69853618338B635
:1023EC00D85358A6D853218358B6D853418378A6CE
:1023FC00DC53E1837CB68280010049BF011122CC01
:10240C002A84354506CE2EC632C497F0FF1FE780CE
:10241C00C06603A741853C4B228593E707083CCB5C
:10242C002246B2458535F240624401450561828001
:10243C00011106CE2EC615CD1841AA8705C35841E9
:10244C007D5511CB8546631BD700984723000700A9
:10245C0023A207000545F240056182809847B246E9
:10246C002300D7009847050798C7D8437D17D8C3D2
:10247C00D5B705466C006D3BF1BF011122CC26CAC5
:10248C0052C456C25AC006CE4AC84EC62A8AAE8A12
:10249C003284BA8413FB1600634A06082E853689EB
:1024AC00492BAA8963528508635D9502058C6319D3
:1024BC000B08130B00022289634F20070149336973
:1024CC00240B3304244163D99902B3843441A68983
:1024DC00930500035285FD19A13FE39B09FE269944
:1024EC0021A8098C13792900E30309FCE9F06301A5
:1024FC000B040149130B0003CA84B3872441D697FC
:10250C0083850700B1E12289634420058147F240AD
:10251C003365F40A62444249B249224A924A024B58
:10252C002695D2440561828001446DBF814941B733
:10253C00130B000349B7DA855285DD3D7D19ADBF1C
:10254C00130B0002014941B75285DD35850475B77F
:10255C00DA855285F13D7D1945BF397126DA4ED6A3
:10256C0006DE22DC4AD852D456D25AD0BA84BE895E
:10257C0085E5930700030147CE8626862C0023149D
:10258C00F100E53DF2506254D2544259B259225AEC
:10259C00925A025B216182802A893684C28A468BD8
:1025AC0091CAA94701446317F60063D50500B3052A
:1025BC00B0400544A30F01001307F101A546138594
:1025CC006AFCB3F7C50263D3F600AA979387070397
:1025DC00A30FF7FE130AF7FFB3D7C50263F5C504C3
:1025EC0011C8A9C493F72900B1C39305D0024A8539
:1025FC008135FD1493F7490099CF93071006930585
:10260C0000034A85639CFA022535930580074A85A9
:10261C0005350904F9145A87CE862686D2854A8553
:10262C00A93D229585B7BE85528761BF9307D0021D
:10263C00A30FFAFE0144130AE7FF6DBFD53B9305C8
:10264C008005F1B7014582800145828039715AD0ED
:10265C00116B22DC26DA4AD84ED652D456D25ECE34
:10266C0066CA6AC806DE62CCAA892E893284014AFF
:10267C008144930B5002930AD002A54C294D130BA5
:10268C008BB1830509008DE56385090081454E8575
:10269C004533F25062544259B259225A925A025B53
:1026AC00F24B624CD24C424D2685D2542161828031
:1026BC00638775014E85AD3B85040509D9B7830742
:1026CC001900130C190063997701930550024E857C
:1026DC00853385046289D5B7C5DB6386570363CC24
:1026EC00FA00130730026387E7041307B002638014
:1026FC00E704814721A813070003E39CE7FE130CB2
:10270C002900894721A0130C2900854703070C00D9
:10271C00630D570363C4EA0293063002630AD702BF
:10272C009306B0026308D7026289014625A8130CF0
:10273C002900C1B7130C29009147C9BF93060003A8
:10274C00E314D7FE93E7270031A0050C8547E9BFBA
:10275C0093E74700050CC9BF3306A6031317476060
:10276C0005093A9683060900138706FD9375F70F42
:10277C00E3F4BCFE1307E0029945639FE6000509EC
:10278C008145A546294803070900130707FD137562
:10279C00F70F63F9A6022E8A830609001307C006F9
:1027AC006380E6046347D70213078006638BE60653
:1027BC001307A006638EE6061307C004638AE606B9
:1027CC0001473DA0B3850503131747600509BA956A
:1027DC005DBF13074007638DE6041307A007F9BF1D
:1027EC00030519000D476314D500050911470509A8
:1027FC008306090013050006635ED50213058007E6
:10280C00E34DD5EA13052006E359D5EA9386D6F9AC
:10281C0093F6F60F5545E362D5EAB3C666219442AA
:10282C008286030519000147E314D5FC0909C9B7D1
:10283C00050979B7130570046345D50213074004E5
:10284C00634ED71213073004E399E6E61840130CD5
:10285C004400A30601002306E100BE8601476C007C
:10286C0099A09305800513081004E398B6E49146EB
:10287C00631ED70693057400E19913848500C28802
:10288C003E880147B287C146D0418C414E855D3BA5
:10289C00AA9425B50C40130C440081E591659385F1
:1028AC0005B15287BE864E85C93E1DA89146631E52
:1028BC00D70093057400E1993E8813848500930832
:1028CC001006B2870547A946C1B7130C4400D2883D
:1028DC00130810063287854629460C404E85B539BB
:1028EC00AA946284D9BB1308100651B7130C440088
:1028FC00D288328781464146CDB79146631DD700B9
:10290C0093057400E1993E881384850093081006A2
:10291C00B28701474DBF130C4400D2881308100630
:10292C003287814655BF914693E74700631AD7001B
:10293C0093057400E199138485009308100689B7F8
:10294C00130C4400D2881308100665B79146631E19
:10295C00D70093057400E1993E8813848500930891
:10296C001006B2870147A14605B73287130C440005
:10297C00D288130810068146214685B793081004A7
:10298C001305740061993E883287AE8750410C4123
:10299C0013048500A9464E854539DDBD9308100604
:1029AC00C5B7397132D43EDA2AC63010FD5748000B
:1029BC0006CE36D63AD842DC46DE02C23EC432C01F
:1029CC007131F2402161828035713ECB93074020FA
:1029DC0086DEA2DC32C52E8436C73AC942CD46CF3C
:1029EC00231AF1002AC42ACCA92097070000938748
:1029FC0027032AC62ACE3ED63401FD5722862C0048
:102A0C0017F5FF1F0325052702DE82C8231BF100E3
:102A1C0036C22D2AF65066540D61828001458280A3
:102A2C00AA8703C7050085078505A38FE7FE75FBFD
:102A3C008280AA8703C7070085076DFF3385A740EF
:102A4C007D15828005C67D160147B307E500B38668
:102A5C00E50083C7070083C606006396D7006304AE
:102A6C00C7000507FDF33385D7408280014582807E
:102A7C00411106C622C426C24AC0FD57639AF5000E
:102A8C00FD54B24022440249268592444101828081
:102A9C008357C600585A328493F7F7FD2316F60075
:102AAC0013F9F50F5C4293F4F50F1DC3185E63DC4C
:102ABC00E7001C401387F7FF18C0A38F27FF5C406B
:102ACC0085075CC07DBFB285EF0050227DD14DBF24
:102ADC00144A184291CA63F9E6008346F7FF6395DE
:102AEC0096007D1718C2E9BF3CC0930744045CD81C
:102AFC008D471CDC930764041CC058DC230324059D
:102B0C008547C1B7411122C42E84CC5906C69DC13C
:102B1C00930744046384F500EF0050283C40232ABB
:102B2C0004025CC081CB5C5C01451CC0B2402244F9
:102B3C00410182801C48232204007D551CC0835710
:102B4C00C40093E707022316F400CDB7130101D597
:102B5C0097070000938707F2232C41292324F1289F
:102B6C00130AC10097070000938707FA2324812AD0
:102B7C002322912A232E3129232A51292326112A53
:102B8C002320212B23286129AA842E84232C011095
:102B9C00232E0110232041132326F12836C4971924
:102BAC0000009389F906930A500283470600638557
:102BBC00072E338737010347070013091600218BB3
:102BCC0021C35C406357F0021C4003C707004E97BB
:102BDC0003470700218B19E34A86C1BF0327C111A4
:102BEC0085071CC00507232EE11058407D1758C0DF
:102BFC00C9BF8327C128A2852685829771D5E9BFD5
:102C0C003E8B6391570F232A011023260110034793
:102C1C0016009307A0026317F700C1472326F11093
:102C2C00130926004A8B2547A94683450B00130937
:102C3C001B00938705FD6370F7060D461715000002
:102C4C00130585F2EF00F01309CD97170000938759
:102C5C00A7F11D8D8327C1104A8BB397A728232674
:102C6C00F11083470B001307800713091B00636DDA
:102C7C00F70013077005636BF702130750026381AB
:102C8C00E7066366F704C1CF8D472322F112A947EB
:102C9C002328F110F5A8832741114A8BB387F6023C
:102CAC00938707FDAE97232AF11041B7138787FA54
:102CBC001377F70F93060002E3E8E6FC9716000083
:102CCC009386C6EA3347D7201843369702879387F3
:102CDC00B7FB93F7F70F0947E368F7FA9547A1A8F5
:102CEC00130B50025C406352F0021C4003C70700F8
:102CFC006314671B850758401CC08327C1117D17BF
:102D0C0058C08507232EF110C1BD8327C128A28589
:102D1C002685829779D903258111631605147D5573
:102D2C0089AA8327C11093E707222326F110C147F4
:102D3C002328F11091472322F11299A80327C110DF
:102D4C00136707202326E11041472328E1101307BE
:102D5C00E0066375F700F9BF232801108D47E1BF2A
:102D6C00A147F9B72947D5B7CA8552859529832735
:102D7C00C1102A8993E707042326F110854765BF04
:102D8C008327C1102322011293E707042326F11095
:102D9C005C406359F0068327C11093F7070489EB55
:102DAC001C4003C707004E9703470700218B35E3F0
:102DBC008327411209476342F708340022866C02CC
:102DCC002685F12885476309F50C8947E316F5E05C
:102DDC0099B789478DB78327C11013F70701E31DF6
:102DEC0007DE224793F517008326C111130647000F
:102DFC0091C532C41C432390D700F9BB32C41C4389
:102E0C0094C3D9BB8327C128A2852685829741D537
:102E1C0019B70327C1110507232EE11058407D1760
:102E2C0058C06355E00085071CC09DBF8327C1288F
:102E3C00A285268582972DD5F9BD11476348F700E9
:102E4C00340022866C0226852D2AADBF9307000024
:102E5C00E38407D8340022866C0226859700000094
:102E6C00E700000085B78357C40093F70704E39885
:102E7C0007EA8320C12A0324812A8324412A0329B7
:102E8C00012A8329C129032A8129832A4129032B59
:102E9C0001291301012B828003258111D9BF9C4587
:102EAC00797122D426D252CC06D64AD04ECE56CAEE
:102EBC005AC85EC62A8A2E84B28491E7984DFD5773
:102ECC0011E385471CC41C40C18B99E79C421387B6
:102EDC00470098C283A907000149054B894B971AF3
:102EEC000000938AFAD2084C05C9631D65019C4009
:102EFC0003C707005C48BA9783C7070091EF6307C5
:102F0C000906B9A0631675059C4083C70700D697C0
:102F1C0083C70700A18B8DEF1C400509C18B99E776
:102F2C009C40850983C70700A38FF9FE9840DC40BD
:102F3C00050798C01844FD17DCC07D1718C409CBD1
:102F4C00E343F0FA83270418A6855285829741DD66
:102F5C001C40C18B81EB5C4485075CC41C4C99C341
:102F6C00238009001C480145CA971CC8B250225442
:102F7C0092540259F249624AD24A424BB24B4561D1
:102F8C0082801D7197170000938787C63ECA984DA3
:102F9C0097170000938707C63ECC971700009387BE
:102FAC00A7C5A2CCCAC8CEC662DC3ECE86CEA6CA07
:102FBC00D2C4D6C2DAC05EDE66DA6AD86ED62AC64B
:102FCC008D472E843289B689170C0000130C8C4067
:102FDC006306F700170C0000130C6C511C4413070C
:102FEC00C015814B9386F7FF6377D700938B37EA35
:102FFC009307D0151CC41C400567130707D0930A10
:10300C00C401D98F1CC0130A4101D68C014B854DCC
:10301C000D4D8327090003250A00094683C50700C7
:10302C008D2339CD631EBB0D5C4099E71C40A14636
:10303C0054C093E707201CC01C4093F7F7AF1CC08B
:10304C001C449386F7FF14C485CF8327090093840F
:10305C001C00938617002320D90083C70700238008
:10306C00FC0083274900FD172322F9006349F00077
:10307C00832704183245CA858297631B0510A68CDA
:10308C00050B110AE317ABF95C4099E3A9475CC047
:10309C005C40484897150000938545B79D8DE684A4
:1030AC00FD7C3D2A014B130D0003938CFC6F931D8B
:1030BC00B0281C441840D9C3032609005448834542
:1030CC000600AE9683C60600B5CA639AA505B3760C
:1030DC00B701B1C6050B63850B008507FD1B1CC42E
:1030EC0083274900FD172322F9006353F00483273B
:1030FC00090085072320F9001C44FD171CC455BF8B
:10310C008947E31FFBF21C409306002013F607606F
:10311C00E31CD6F6C14654C093E707100DB73377BE
:10312C00970118C0834706008504A38FF4FE4DBF9A
:10313C00832704183245CA8582975DDD1C4093F7BE
:10314C00071085C363FC9A0083C5F4FF8327C4175B
:10315C003245938BF4FF4A868297DE840545638F54
:10316C0054051C40C18BA1E7238004005440324518
:10317C000146D685029C184083A709009376070266
:10318C0091CA1387470023A0E9009C4388C329A850
:10319C00014B6DB713761700938647001DCE23A005
:1031AC00D9009C432390A7005C4485075CC41C4851
:1031BC00B3845441DA94A6971CC80145F640664482
:1031CC00D6444649B649264A964A064BF25B625C9F
:1031DC00D25C425DB25D2561828023A0D90075B7B7
:1031EC0083C705001307E0052A886383E70213866B
:1031FC00150001478146930500103305D8002300C4
:10320C00E5008506E39BB6FE91EB1305F6FF828085
:10321C0083C71500138625000547E9BF93461700A1
:10322C009308D0021303D0053307F8002300D7000E
:10323C0032850347050013061500630B1701630560
:10324C00670411E38280BA87C5B79307D002E9BF40
:10325C00034715009305D005E309B7FEE347F7FED6
:10326C0009053E860506B305C8002380D500E34B4F
:10327C00E6FE93851700014663D5E7001D8F130604
:10328C00F7FFB387C50075B732858280411106C63A
:10329C0022C49307400263EBD70005472A8FAE8701
:1032AC00171300001303D396639AE600E124D94761
:1032BC001CC10145B240224441018280BE8803C733
:1032CC00070085073305670003480500137888005D
:1032DC00E31608FE1305D0026312A70603C7070006
:1032EC00854F93872800ADE6930600036306D70845
:1032FC00A946B7080080FD18FE98B3F2D802014326
:10330C000145A543E54E7D5433DED802130807FD75
:10331C0063EC030742876357D708630D83007D5323
:10332C00636AAE006314AE0063C6E20005433385E6
:10333C00A6023A95850703C7F7FFC9BF1305B0026C
:10334C00814FE312A7FA03C707009387280061BFD8
:10335C004145E390A6FA13050003E31CA7F803C844
:10336C000700130580051378F80DE314A8F803C7BC
:10337C001700C1468907B5BF03C8070013058005B0
:10338C00A1461378F80DD5B71308F7FB63E50E01CA
:10339C00130797FC49B71308F7F963E50E011307F8
:1033AC0097FA95BF7D57631BE30013072002232078
:1033BC00EF00468501D29385F7FF09A863840F00BF
:1033CC003305A040E30806EEE31703FE0CC2DDB59F
:1033DC0075BD2A8FAE871713000013037383BE8845
:1033EC0003C70700850733056700034805001378FA
:1033FC008800E31608FE1305D002631FA70403C759
:10340C000700854F93872800B5E2930600036303FA
:10341C00D708A9467D58335ED80281480145A5429C
:10342C00E54EFD533373D802130807FD63EC020716
:10343C0042876357D708638D7800FD58636AAE00E6
:10344C006314AE006346E30085483385A6023A95C3
:10345C00850703C7F7FFC9BF1305B002814FE315FA
:10346C00A7FA03C707009387280079BF4145E39368
:10347C00A6FA13050003E31FA7F803C807001305FA
:10348C0080051378F80DE317A8F803C71700C14699
:10349C00890749B703C8070013058005A1461378AF
:1034AC00F80DD5B71308F7FB63E50E01130797FC6E
:1034BC0049B71308F7F963E50E01130797FA95BF9F
:1034CC007D576399E800130720022320EF007D55F8
:1034DC0009EA828063840F003305A04011C663841F
:1034EC0008009385F7FF0CC28280E5B5011122CC50
:1034FC002E84CC5906CE26CA4AC84EC652C493074F
:10350C0044046394F50493050040512211E97D5560
:10351C00F2406244D2444249B249224A0561828057
:10352C00930700401CDC8347640448D81305D53F3F
:10353C002301F50083475404A300F500834744049A
:10354C002300F50008C00145E1B703298403931952
:10355C0019004E86352CAA845DD9330A2501AA851B
:10356C004A865285EFE0EFE82320440144D8232C0F
:10357C003403D1BF17E5FF1F0325C56F82808280FE
:10358C00828093F5F50F2A966314C500014582805D
:10359C0083470500E38DB7FE0505FDB7D1CD83A7A5
:1035AC00C5FF011122CC06CE1384C5FF63D30700DF
:1035BC003E942AC68D2C138781861C43324581EBA1
:1035CC002322040000C36244F240056185A4637D9C
:1035DC00F4001040B306C4006396D7009443DC4358
:1035EC00B29614C05CC0F9BF3E87DC4399C3E37D3F
:1035FC00F4FE14433306D700631F86001040B296C6
:10360C0014C33306D700E390C7FC9043DC43B29657
:10361C0014C35CC34DBF6375C400B1471CC165B70F
:10362C001040B306C4006396D7009443DC43B296B3
:10363C0014C05CC040C341BF828041114AC0138991
:10364C0041868327090022C426C206C6AA842E847A
:10365C0089E781456D222320A900A2852685452274
:10366C007D59631A25017D54B2402285224492442F
:10367C00024941018280130435007198E30685FEEE
:10368C00B305A4402685A52AE31025FFE9BF011147
:10369C0026CA93843500F1984AC8A104B14706CED6
:1036AC0022CC4EC62A89B3F4F40A63C4040063FD29
:1036BC00B400B1472320F9000145F2406244D244E2
:1036CC004249B24905618280B92A9389818683A7D0
:1036DC0009003E8431E4A6854A858537FD572A8446
:1036EC006316F50A03A40900A287C1EB8329040021
:1036FC0081454A85A29921226394A9081C408D0416
:10370C004A859D8CF198B147A104B3F4F40AA685BF
:10371C002D37FD576306F5061C40A6971CC015A057
:10372C001440858E63C806042D47637DD70204C000
:10373C00330794006396870223A0E9005C4014C30E
:10374C005CC34A85E5201305B400930744006199D6
:10375C003307F540E303F5F63A94898F1CC0B1BFEB
:10376C00D8C3E9BF58406395870023A0E900D1BFB7
:10377C00D8C3C1BFA2874040B1BF3E84DC43B5B7BC
:10378C00B1472320F9004A8555203DB704C155BFE8
:10379C00011126CA06CE22CC4AC84EC652C4B284E7
:1037AC0091E96244F240D2444249B249224AB2857C
:1037BC000561F1BD01EEDD330144F2402285624426
:1037CC00D2444249B249224A056182802A8A2E8417
:1037DC008D202A896366950093571500E3EF97FCBB
:1037EC00A68552856D35AA8961D9A28533D6240B5D
:1037FC00EFE02FC0A285528555334E847DBF411119
:10380C0022C42A842E8523AE018406C6EFE0DFA4F1
:10381C00FD576316F50083A7C18591C31CC0B24048
:10382C002244410182801385018691BB1385018658
:10383C0081BB83A7C5FF1385C7FF63D50700AA9576
:10384C009C413E9582800000B20700202E0600208D
:10385C0046080020A406002046080020A8050020E9
:10386C001604002046080020020600201A0600203C
:10387C00AC070020B40500203604002046040020CC
:10388C00D2040020FC040020FC0400201C050020B5
:10389C0024050020436C65617265642025750A005F
:1038AC00636820746573740048656C6C6F2C2057CA
:1038BC006F726C64210A00006368207072652000CE
:1038CC0025686875000000004552524F520A0000EE
:1038DC007072657363616C65722076616C756520BE
:1038EC0069732073657420746F2025752C20707794
:1038FC006D20667265713A2025750A006368206D2B
:10390C0061782000256875004D6178206379636CBF
:10391C00652076616C7565206973207365742074FD
:10392C006F2025752C2070776D20667265713A209A
:10393C0025750A0063682076616C2000496E7075ED
:10394C00742076616C75652069732067726561748B
:10395C006572207468616E206D6178206379636C88
:10396C00650A00004379636C652076616C7565208F
:10397C0069732073657420746F2025752C20707703
:10398C006D20667265713A20256C750A0000000086
:10399C00636820656E637200456E63727970742083
:1039AC00546573740A000000202D20506C61696E00
:1039BC00746578743A2000002530327820000000BD
:1039CC00202D20456E637279707465643A20000076
:1039DC00202D204465637279707465643A20000070
:1039EC004E6576657220476F6E6E6120476976650D
:1039FC00000000000A060002FFFFFF40010000006B
:103A0C00160330003100320033003400350036002C
:103A1C0037003800390000001603550053004200EF
:103A2C002000530065007200690061006C0000000A
:103A3C000E037700630068002E0063006E00000028
:103A4C000902430002010080320904000001020255
:103A5C0001000524001001052401000104240202C8
:103A6C000524060001070583034000010904010039
:103A7C00020A00000007050202000400070582028A
:103A8C000004000009024300020100803209040016
:103A9C0000010202010005240010010524010001AF
:103AAC0004240202052406000107058303400001DB
:103ABC0009040100020A0000000705020240000090
:103ACC0007058202400000001201000202000040C3
:103ADC00861A0CFE0100010203010000581F0000B1
:103AEC00701F0000941F00009E1F0000B41F0000F8
:103AFC00D61F0000EE1F0000122000001C2000004A
:103B0C0032200000286E756C6C29000058280000CB
:103B1C00B8280000A8290000A8290000A829000046
:103B2C00C6260000C6260000C6260000C6260000D9
:103B3C00C6260000C6260000C62600005829000034
:103B4C0032290000C6260000C6260000A02800006E
:103B5C00C626000006290000C6260000C626000066
:103B6C00F2280000686C4C00D4F1FFFF20F1FFFF3D
:103B7C0020F1FFFF00F2FFFF20F1FFFF20F1FFFF1C
:103B8C0020F1FFFF20F1FFFF20F1FFFF20F1FFFFED
:103B9C0020F1FFFF18F2FFFFFCF1FFFF74F1FFFFB4
:103BAC0074F1FFFF74F1FFFF20F1FFFFF0F1FFFF55
:103BBC0020F1FFFF20F1FFFF20F1FFFF20F1FFFFBD
:103BCC006EF2FFFFF8F1FFFFBAF1FFFF20F1FFFFEC
:103BDC0020F1FFFF6AF2FFFF20F1FFFFFCF1FFFF76
:103BEC0020F1FFFF20F1FFFFD4F1FFFF2B2D000090
:103BFC003030000078580000412D46612D66383970
:103C0C0030313233343536375D000000002020204F
:103C1C002020202020202828282828202020202070
:103C2C002020202020202020202020202088101040
:103C3C00101010101010101010101010100404049C
:103C4C00040404040404041010101010101041415A
:103C5C004141414101010101010101010101010148
:103C6C00010101010101010110101010101042425C
:103C7C004242424202020202020202020202020218
:103C8C0002020202020202021010101020000000B8
:103C9C000000000000000000000000000000000018
:103CAC000000000000000000000000000000000008
:103CBC0000000000000000000000000000000000F8
:103CCC0000000000000000000000000000000000E8
:103CDC0000000000000000000000000000000000D8
:103CEC0000000000000000000000000000000000C8
:103CFC0000000000000000000000000000000000B8
:103D0C0000000000000000000000000000000000A7
:103D1C000000000000000000000000000000000097
:103D2C000000000000000000000000000000000087
:103D3C000000000000000000000000000000000077
:103D4C000000000000000000000000000000000067
:103D5C000000000000000000000000000000000057
:103D6C000000000000000000000000000000000047
:103D7C00000000000000000000AAAAAAAAAAAAAA91
:103D8C00AAEEEEEEEEEEEEEEEEFEFFFFFFFFFFFF15
:103D9C00FFFFFFFFFF7FBFDFEFF7FBFDFC7EBFDF09
:103DAC00EFF7FBFD7E00000009070000000000009B
:103DBC0000000000000000000000000000000000F7
:103DCC0000000000000000000000000000000000E7
:103DDC0000000000000000000000000000000000D7
:103DEC0000000000000000000000000009070000B7
:103DFC0000000000000000000000000000000000B7
:103E0C0000000000000000000000000000000000A6
:103E1C000000000000000000000000000000000096
:103E2C000000000000000000000000000000000086
:103E3C00000000005C3D00003C3D00001C3D00000B
:103E4C000000000000000000000000000000000066
:103E5C000000000000000000000000000000000056
:103E6C000000000000000000000000000000000046
:103E7C000000000000000000000000000000000036
:103E8C000000000000000000000000000000000026
:0C3E9C00A4330020181C002004030904BB
:00000001FF
